:1000000019C033C032C031C030C02FC02EC02DC087
:100010002CC02BC02AC029C028C050C126C025C072
:1000200024C023C025C121C020C01FC01EC01DC0C8
:100030001CC01BC011241FBECFEFD2E0DEBFCDBF5E
:1000400011E0A0E0B1E0E0E2F3E002C005900D9223
:10005000A036B107D9F711E0A0E6B1E001C01D92CA
:10006000A83CB107E1F7ECD059C1CACFF8949093FE
:10007000C5008093C400E1ECF0E080818869808352
:10008000E2ECF0E080818660808378940895982F78
:100090008091C00085FFFCCF9093C60008958091A9
:1000A000C00087FFFCCF8091C600089502C08091F8
:1000B000C6008091C00087FDFACF0895FC0107C0FB
:1000C0008091C00085FFFCCF9093C600319690814F
:1000D0009923B1F70895F8941092800085EE8093EB
:1000E00085008EEE8093840081E080938100EFE6AE
:1000F000F0E080818160808378940895DF93CF93CE
:1001000000D000D0CDB7DEB76091C6017091C701B5
:1001100021E030E0062E02C0220F331F0A94E2F7DE
:100120002C83A091C501B0E0AA0FBB1FFD01319641
:1001300093E0EE0FFF1F9A95E1F7E60FF71FE050EF
:10014000FF4F80818B832A8383E0AA0FBB1F8A9590
:10015000E1F7A60FB71FA050BF4F8C918983FE0116
:10016000319640E050E02EC080814230510584F449
:1001700090E0022E02C0880F991F0A94E2F787FFD1
:1001800002C05A9A02C08BB11BB85C985C9A0FC02F
:1001900090E0022E02C0880F991F0A94E2F787FFB1
:1001A00002C02A9A02C085B115B82898289A2F5FF4
:1001B0003F4F28303105C1F64F5F5F4F31964430D5
:1001C000510519F020E030E0CFCF2998299A5B98AB
:1001D0005B9ACB0101969093C7018093C601089763
:1001E00024F01092C7011092C6010F900F900F904B
:1001F0000F90CF91DF910895DC0120E030E040E0E6
:1002000007C0FD01E20FF31F8081480F2F5F3F4FB2
:1002100026173707B0F3842F0895809160018A353F
:1002200071F42091620180916101820F90916301CC
:10023000891729F42093C50180E691E03FDF0895F6
:1002400084B1876084B98AB18C618AB985B1887FAD
:1002500085B98BB1837E8BB983E390E007DF3BDF09
:100260008091C4018530E1F7D8DF1092C401F8CF46
:100270001F920F920FB60F9211248F93EF93FF935B
:10028000F8948091C401843670F4E091C4018091A7
:10029000C600F0E0E05AFE4F80838091C4018F5F7A
:1002A0008093C40102C01092C4017894FF91EF9131
:1002B0008F910F900FBE0F901F9018951F920F9265
:1002C0000FB60F9211242F933F934F935F936F9329
:1002D0007F938F939F93AF93BF93EF93FF93F89484
:1002E000E1E8F0E0108285EE809385008EEE809349
:1002F000840081E08083789401DFFF91EF91BF91CA
:10030000AF919F918F917F916F915F914F913F91AD
:100310002F910F900FBE0F901F901895F894FFCF5C
:10032000FFFFE3DDFFFFFFFFFFFFC7BBFFFFFFFF97
:10033000FFFFC3FBFFFFFFFFFFFFC3DFFFFFFFFF69
:10034000FFFFC3EFF7C3FFFFFFFFC3EFF7C3FFFFDD
:10035000FFFFC1F7F7F7FFFFFFFF83EFEFEFFFFFAF
:10036000FFFFF7EBDDFFFFFFFFFFEFD7BBFFFFFF57
:10037000EF83EB83AF83EFFFEF83EB83AF83EFFF7D
:00000001FF
